{
  "_format": "hh-sol-artifact-1",
  "contractName": "AMM",
  "sourceName": "contracts/AMM.sol",
  "abi": [
    {
      "inputs": [
        {
          "internalType": "contract ERC20",
          "name": "token",
          "type": "address"
        }
      ],
      "stateMutability": "nonpayable",
      "type": "constructor"
    },
    {
      "anonymous": false,
      "inputs": [
        {
          "indexed": true,
          "internalType": "address",
          "name": "from",
          "type": "address"
        },
        {
          "indexed": true,
          "internalType": "address",
          "name": "to",
          "type": "address"
        },
        {
          "indexed": false,
          "internalType": "uint256",
          "name": "value",
          "type": "uint256"
        }
      ],
      "name": "Transfer",
      "type": "event"
    },
    {
      "inputs": [
        {
          "internalType": "address",
          "name": "_to",
          "type": "address"
        },
        {
          "internalType": "uint256",
          "name": "_amount",
          "type": "uint256"
        }
      ],
      "name": "TokensTransfer",
      "outputs": [],
      "stateMutability": "nonpayable",
      "type": "function"
    },
    {
      "inputs": [
        {
          "internalType": "address",
          "name": "_from",
          "type": "address"
        },
        {
          "internalType": "address",
          "name": "_to",
          "type": "address"
        },
        {
          "internalType": "uint256",
          "name": "_amount",
          "type": "uint256"
        }
      ],
      "name": "TokensTransferFrom",
      "outputs": [],
      "stateMutability": "nonpayable",
      "type": "function"
    },
    {
      "inputs": [
        {
          "internalType": "address payable",
          "name": "recipient",
          "type": "address"
        },
        {
          "internalType": "uint256",
          "name": "amount",
          "type": "uint256"
        }
      ],
      "name": "TransferEther",
      "outputs": [],
      "stateMutability": "payable",
      "type": "function"
    },
    {
      "inputs": [],
      "name": "_ExpBalanceEther",
      "outputs": [
        {
          "internalType": "uint256",
          "name": "",
          "type": "uint256"
        }
      ],
      "stateMutability": "view",
      "type": "function"
    },
    {
      "inputs": [],
      "name": "_ExpBalanceToken",
      "outputs": [
        {
          "internalType": "uint256",
          "name": "",
          "type": "uint256"
        }
      ],
      "stateMutability": "view",
      "type": "function"
    },
    {
      "inputs": [],
      "name": "_valueToTransfer",
      "outputs": [
        {
          "internalType": "uint256",
          "name": "",
          "type": "uint256"
        }
      ],
      "stateMutability": "view",
      "type": "function"
    },
    {
      "inputs": [
        {
          "internalType": "uint256",
          "name": "_amount",
          "type": "uint256"
        }
      ],
      "name": "addLiquidity",
      "outputs": [],
      "stateMutability": "payable",
      "type": "function"
    },
    {
      "inputs": [],
      "name": "amount_valueToTransfer",
      "outputs": [
        {
          "internalType": "uint256",
          "name": "",
          "type": "uint256"
        }
      ],
      "stateMutability": "view",
      "type": "function"
    },
    {
      "inputs": [
        {
          "internalType": "address",
          "name": "account",
          "type": "address"
        }
      ],
      "name": "getBalanceOfERC20",
      "outputs": [
        {
          "internalType": "uint256",
          "name": "",
          "type": "uint256"
        }
      ],
      "stateMutability": "view",
      "type": "function"
    },
    {
      "inputs": [
        {
          "internalType": "address",
          "name": "_address",
          "type": "address"
        }
      ],
      "name": "getEtherBalance",
      "outputs": [
        {
          "internalType": "uint256",
          "name": "",
          "type": "uint256"
        }
      ],
      "stateMutability": "view",
      "type": "function"
    },
    {
      "inputs": [
        {
          "internalType": "string",
          "name": "t",
          "type": "string"
        }
      ],
      "name": "getRate",
      "outputs": [
        {
          "internalType": "uint256",
          "name": "",
          "type": "uint256"
        }
      ],
      "stateMutability": "view",
      "type": "function"
    },
    {
      "inputs": [],
      "name": "getTokens",
      "outputs": [
        {
          "internalType": "string",
          "name": "_ether",
          "type": "string"
        },
        {
          "internalType": "string",
          "name": "_symbol",
          "type": "string"
        }
      ],
      "stateMutability": "view",
      "type": "function"
    },
    {
      "inputs": [],
      "name": "get_TokenAddress",
      "outputs": [
        {
          "internalType": "address",
          "name": "",
          "type": "address"
        }
      ],
      "stateMutability": "view",
      "type": "function"
    },
    {
      "inputs": [
        {
          "internalType": "uint256",
          "name": "amount",
          "type": "uint256"
        }
      ],
      "name": "get_valueEtherToTransfer",
      "outputs": [
        {
          "internalType": "uint256",
          "name": "",
          "type": "uint256"
        }
      ],
      "stateMutability": "nonpayable",
      "type": "function"
    },
    {
      "inputs": [
        {
          "internalType": "uint256",
          "name": "amount",
          "type": "uint256"
        }
      ],
      "name": "get_valueTokenToTransfer",
      "outputs": [
        {
          "internalType": "uint256",
          "name": "",
          "type": "uint256"
        }
      ],
      "stateMutability": "nonpayable",
      "type": "function"
    },
    {
      "inputs": [],
      "name": "initialbalancEether",
      "outputs": [
        {
          "internalType": "uint256",
          "name": "",
          "type": "uint256"
        }
      ],
      "stateMutability": "view",
      "type": "function"
    },
    {
      "inputs": [],
      "name": "initialbalanceToken",
      "outputs": [
        {
          "internalType": "uint256",
          "name": "",
          "type": "uint256"
        }
      ],
      "stateMutability": "view",
      "type": "function"
    },
    {
      "inputs": [],
      "name": "k",
      "outputs": [
        {
          "internalType": "uint256",
          "name": "",
          "type": "uint256"
        }
      ],
      "stateMutability": "view",
      "type": "function"
    },
    {
      "inputs": [
        {
          "internalType": "uint256",
          "name": "_amount",
          "type": "uint256"
        }
      ],
      "name": "swap",
      "outputs": [],
      "stateMutability": "payable",
      "type": "function"
    },
    {
      "inputs": [],
      "name": "valamount",
      "outputs": [
        {
          "internalType": "uint256",
          "name": "",
          "type": "uint256"
        }
      ],
      "stateMutability": "view",
      "type": "function"
    }
  ],
  "bytecode": "0x608060405234801561001057600080fd5b506040516125d13803806125d18339818101604052810190610032919061015c565b600073ffffffffffffffffffffffffffffffffffffffff168173ffffffffffffffffffffffffffffffffffffffff16036100a1576040517f08c379a0000000000000000000000000000000000000000000000000000000008152600401610098906101e6565b60405180910390fd5b806000806101000a81548173ffffffffffffffffffffffffffffffffffffffff021916908373ffffffffffffffffffffffffffffffffffffffff16021790555050610206565b600080fd5b600073ffffffffffffffffffffffffffffffffffffffff82169050919050565b6000610117826100ec565b9050919050565b60006101298261010c565b9050919050565b6101398161011e565b811461014457600080fd5b50565b60008151905061015681610130565b92915050565b600060208284031215610172576101716100e7565b5b600061018084828501610147565b91505092915050565b600082825260208201905092915050565b7f4164647265737320697320656d70747921000000000000000000000000000000600082015250565b60006101d0601183610189565b91506101db8261019a565b602082019050919050565b600060208201905081810360008301526101ff816101c3565b9050919050565b6123bc806102156000396000f3fe60806040526004361061011f5760003560e01c8063aa6ca808116100a0578063c374aec911610064578063c374aec9146103af578063dc45d08e146103da578063e207affe14610417578063f83e465e14610454578063faf40f331461047f5761011f565b8063aa6ca808146102d4578063b3b1161e14610300578063b4f40c611461031c578063b89c557714610347578063bec7809b146103845761011f565b80636c0daed8116100e75780636c0daed8146101ea5780637b3c9719146102275780637d3558ba14610252578063802871911461027b57806394b918de146102b85761011f565b8063257e48721461012457806338d40e031461014f57806348b458c41461017a57806351c6590a146101a5578063669dcb02146101c1575b600080fd5b34801561013057600080fd5b506101396104aa565b60405161014691906114aa565b60405180910390f35b34801561015b57600080fd5b506101646104b0565b6040516101719190611506565b60405180910390f35b34801561018657600080fd5b5061018f6104d9565b60405161019c91906114aa565b60405180910390f35b6101bf60048036038101906101ba9190611561565b6104df565b005b3480156101cd57600080fd5b506101e860048036038101906101e391906115ba565b61068d565b005b3480156101f657600080fd5b50610211600480360381019061020c9190611753565b610916565b60405161021e91906114aa565b60405180910390f35b34801561023357600080fd5b5061023c610b4e565b60405161024991906114aa565b60405180910390f35b34801561025e57600080fd5b506102796004803603810190610274919061179c565b610b54565b005b34801561028757600080fd5b506102a2600480360381019061029d91906117dc565b610cd3565b6040516102af91906114aa565b60405180910390f35b6102d260048036038101906102cd9190611561565b610d77565b005b3480156102e057600080fd5b506102e9611138565b6040516102f7929190611888565b60405180910390f35b61031a600480360381019061031591906118fd565b61120d565b005b34801561032857600080fd5b5061033161129b565b60405161033e91906114aa565b60405180910390f35b34801561035357600080fd5b5061036e60048036038101906103699190611561565b6112a1565b60405161037b91906114aa565b60405180910390f35b34801561039057600080fd5b50610399611348565b6040516103a691906114aa565b60405180910390f35b3480156103bb57600080fd5b506103c461134e565b6040516103d191906114aa565b60405180910390f35b3480156103e657600080fd5b5061040160048036038101906103fc91906117dc565b611354565b60405161040e91906114aa565b60405180910390f35b34801561042357600080fd5b5061043e60048036038101906104399190611561565b611375565b60405161044b91906114aa565b60405180910390f35b34801561046057600080fd5b50610469611485565b60405161047691906114aa565b60405180910390f35b34801561048b57600080fd5b5061049461148b565b6040516104a191906114aa565b60405180910390f35b60055481565b60008060009054906101000a900473ffffffffffffffffffffffffffffffffffffffff16905090565b60075481565b600034141580156104f1575060008114155b610530576040517f08c379a000000000000000000000000000000000000000000000000000000000815260040161052790611989565b60405180910390fd5b61053b33308361068d565b3073ffffffffffffffffffffffffffffffffffffffff163373ffffffffffffffffffffffffffffffffffffffff167fddf252ad1be2c89b69c2b068fc378daa952ba7f163c4a11628f55a4df523b3ef8360405161059891906114aa565b60405180910390a3600047116105e3576040517f08c379a00000000000000000000000000000000000000000000000000000000081526004016105da906119f5565b60405180910390fd5b4760048190555060008054906101000a900473ffffffffffffffffffffffffffffffffffffffff1673ffffffffffffffffffffffffffffffffffffffff166370a08231306040518263ffffffff1660e01b81526004016106439190611506565b602060405180830381865afa158015610660573d6000803e3d6000fd5b505050506040513d601f19601f820116820180604052508101906106849190611a2a565b60058190555050565b8230828060008054906101000a900473ffffffffffffffffffffffffffffffffffffffff1673ffffffffffffffffffffffffffffffffffffffff1663dd62ed3e85856040518363ffffffff1660e01b81526004016106ec929190611a57565b602060405180830381865afa158015610709573d6000803e3d6000fd5b505050506040513d601f19601f8201168201806040525081019061072d9190611a2a565b1015826040516020016107409190611b45565b60405160208183030381529060405290610790576040517f08c379a00000000000000000000000000000000000000000000000000000000081526004016107879190611b6b565b60405180910390fd5b508360008054906101000a900473ffffffffffffffffffffffffffffffffffffffff1673ffffffffffffffffffffffffffffffffffffffff166370a08231886040518263ffffffff1660e01b81526004016107eb9190611506565b602060405180830381865afa158015610808573d6000803e3d6000fd5b505050506040513d601f19601f8201168201806040525081019061082c9190611a2a565b101561086d576040517f08c379a000000000000000000000000000000000000000000000000000000000815260040161086490611bd9565b60405180910390fd5b60008054906101000a900473ffffffffffffffffffffffffffffffffffffffff1673ffffffffffffffffffffffffffffffffffffffff166323b872dd8787876040518463ffffffff1660e01b81526004016108ca93929190611bf9565b6020604051808303816000875af11580156108e9573d6000803e3d6000fd5b505050506040513d601f19601f8201168201806040525081019061090d9190611c68565b50505050505050565b60008082510361095b576040517f08c379a000000000000000000000000000000000000000000000000000000000815260040161095290611d07565b60405180910390fd5b600047905060008060009054906101000a900473ffffffffffffffffffffffffffffffffffffffff1673ffffffffffffffffffffffffffffffffffffffff166370a08231306040518263ffffffff1660e01b81526004016109bc9190611506565b602060405180830381865afa1580156109d9573d6000803e3d6000fd5b505050506040513d601f19601f820116820180604052508101906109fd9190611a2a565b9050600080821480610a0f5750600083145b15610a1d5760009050610b43565b604051602001610a2c90611d73565b6040516020818303038152906040528051906020012085604051602001610a539190611db9565b6040516020818303038152906040528051906020012003610a8f5781620f424084610a7e9190611dff565b610a889190611e70565b9050610b42565b604051602001610a9e90611eed565b6040516020818303038152906040528051906020012085604051602001610ac59190611db9565b6040516020818303038152906040528051906020012003610b065782670de0b6b3a764000083610af59190611dff565b610aff9190611e70565b9050610b41565b6040517f08c379a0000000000000000000000000000000000000000000000000000000008152600401610b3890611f4e565b60405180910390fd5b5b5b809350505050919050565b60045481565b8060008054906101000a900473ffffffffffffffffffffffffffffffffffffffff1673ffffffffffffffffffffffffffffffffffffffff166370a08231306040518263ffffffff1660e01b8152600401610bae9190611506565b602060405180830381865afa158015610bcb573d6000803e3d6000fd5b505050506040513d601f19601f82011682018060405250810190610bef9190611a2a565b1015610c30576040517f08c379a0000000000000000000000000000000000000000000000000000000008152600401610c2790611fba565b60405180910390fd5b60008054906101000a900473ffffffffffffffffffffffffffffffffffffffff1673ffffffffffffffffffffffffffffffffffffffff1663a9059cbb83836040518363ffffffff1660e01b8152600401610c8b929190611fda565b6020604051808303816000875af1158015610caa573d6000803e3d6000fd5b505050506040513d601f19601f82011682018060405250810190610cce9190611c68565b505050565b60008060009054906101000a900473ffffffffffffffffffffffffffffffffffffffff1673ffffffffffffffffffffffffffffffffffffffff166370a08231836040518263ffffffff1660e01b8152600401610d2f9190611506565b602060405180830381865afa158015610d4c573d6000803e3d6000fd5b505050506040513d601f19601f82011682018060405250810190610d709190611a2a565b9050919050565b6000810361100557610d8834611375565b60078190555060075460008054906101000a900473ffffffffffffffffffffffffffffffffffffffff1673ffffffffffffffffffffffffffffffffffffffff166370a08231306040518263ffffffff1660e01b8152600401610dea9190611506565b602060405180830381865afa158015610e07573d6000803e3d6000fd5b505050506040513d601f19601f82011682018060405250810190610e2b9190611a2a565b1015610e6c576040517f08c379a0000000000000000000000000000000000000000000000000000000008152600401610e639061204f565b60405180910390fd5b60008060009054906101000a900473ffffffffffffffffffffffffffffffffffffffff1673ffffffffffffffffffffffffffffffffffffffff1663a9059cbb336007546040518363ffffffff1660e01b8152600401610ecc929190611fda565b6020604051808303816000875af1158015610eeb573d6000803e3d6000fd5b505050506040513d601f19601f82011682018060405250810190610f0f9190611c68565b90506001151581151514610f58576040517f08c379a0000000000000000000000000000000000000000000000000000000008152600401610f4f906120bb565b60405180910390fd5b4760048190555060008054906101000a900473ffffffffffffffffffffffffffffffffffffffff1673ffffffffffffffffffffffffffffffffffffffff166370a08231306040518263ffffffff1660e01b8152600401610fb89190611506565b602060405180830381865afa158015610fd5573d6000803e3d6000fd5b505050506040513d601f19601f82011682018060405250810190610ff99190611a2a565b60058190555050611135565b61100e816112a1565b60078190555061102d3330620f4240846110289190611dff565b61068d565b600754471015611072576040517f08c379a00000000000000000000000000000000000000000000000000000000081526004016110699061204f565b60405180910390fd5b60003373ffffffffffffffffffffffffffffffffffffffff16670de0b6b3a76400006007546110a19190611dff565b6040516110ad9061210c565b60006040518083038185875af1925050503d80600081146110ea576040519150601f19603f3d011682016040523d82523d6000602084013e6110ef565b606091505b5050905080611133576040517f08c379a000000000000000000000000000000000000000000000000000000000815260040161112a9061216d565b60405180910390fd5b505b50565b6060806040518060400160405280600581526020017f6574686572000000000000000000000000000000000000000000000000000000815250915060008054906101000a900473ffffffffffffffffffffffffffffffffffffffff1673ffffffffffffffffffffffffffffffffffffffff166395d89b416040518163ffffffff1660e01b8152600401600060405180830381865afa1580156111de573d6000803e3d6000fd5b505050506040513d6000823e3d601f19601f8201168201806040525081019061120791906121fd565b90509091565b47811115611250576040517f08c379a000000000000000000000000000000000000000000000000000000000815260040161124790612292565b60405180910390fd5b8173ffffffffffffffffffffffffffffffffffffffff166108fc829081150290604051600060405180830381858888f19350505050158015611296573d6000803e3d6000fd5b505050565b60065481565b60006005546004546112b39190611dff565b600681905550816005546112c791906122b2565b600381905550600060035403611312576040517f08c379a000000000000000000000000000000000000000000000000000000000815260040161130990612332565b60405180910390fd5b6003546006546113229190611e70565b6001819055506001546004546113389190612352565b6002819055506002549050919050565b60015481565b60025481565b60008173ffffffffffffffffffffffffffffffffffffffff16319050919050565b60004760048190555060008054906101000a900473ffffffffffffffffffffffffffffffffffffffff1673ffffffffffffffffffffffffffffffffffffffff166370a08231306040518263ffffffff1660e01b81526004016113d79190611506565b602060405180830381865afa1580156113f4573d6000803e3d6000fd5b505050506040513d601f19601f820116820180604052508101906114189190611a2a565b60058190555081600881905550600554826004546114369190612352565b6114409190611dff565b60068190555060045460018190555060015460065461145f9190611e70565b6003819055506003546005546114759190612352565b6002819055506002549050919050565b60085481565b60035481565b6000819050919050565b6114a481611491565b82525050565b60006020820190506114bf600083018461149b565b92915050565b600073ffffffffffffffffffffffffffffffffffffffff82169050919050565b60006114f0826114c5565b9050919050565b611500816114e5565b82525050565b600060208201905061151b60008301846114f7565b92915050565b6000604051905090565b600080fd5b600080fd5b61153e81611491565b811461154957600080fd5b50565b60008135905061155b81611535565b92915050565b6000602082840312156115775761157661152b565b5b60006115858482850161154c565b91505092915050565b611597816114e5565b81146115a257600080fd5b50565b6000813590506115b48161158e565b92915050565b6000806000606084860312156115d3576115d261152b565b5b60006115e1868287016115a5565b93505060206115f2868287016115a5565b92505060406116038682870161154c565b9150509250925092565b600080fd5b600080fd5b6000601f19601f8301169050919050565b7f4e487b7100000000000000000000000000000000000000000000000000000000600052604160045260246000fd5b61166082611617565b810181811067ffffffffffffffff8211171561167f5761167e611628565b5b80604052505050565b6000611692611521565b905061169e8282611657565b919050565b600067ffffffffffffffff8211156116be576116bd611628565b5b6116c782611617565b9050602081019050919050565b82818337600083830152505050565b60006116f66116f1846116a3565b611688565b90508281526020810184848401111561171257611711611612565b5b61171d8482856116d4565b509392505050565b600082601f83011261173a5761173961160d565b5b813561174a8482602086016116e3565b91505092915050565b6000602082840312156117695761176861152b565b5b600082013567ffffffffffffffff81111561178757611786611530565b5b61179384828501611725565b91505092915050565b600080604083850312156117b3576117b261152b565b5b60006117c1858286016115a5565b92505060206117d28582860161154c565b9150509250929050565b6000602082840312156117f2576117f161152b565b5b6000611800848285016115a5565b91505092915050565b600081519050919050565b600082825260208201905092915050565b60005b83811015611843578082015181840152602081019050611828565b60008484015250505050565b600061185a82611809565b6118648185611814565b9350611874818560208601611825565b61187d81611617565b840191505092915050565b600060408201905081810360008301526118a2818561184f565b905081810360208301526118b6818461184f565b90509392505050565b60006118ca826114c5565b9050919050565b6118da816118bf565b81146118e557600080fd5b50565b6000813590506118f7816118d1565b92915050565b600080604083850312156119145761191361152b565b5b6000611922858286016118e8565b92505060206119338582860161154c565b9150509250929050565b7f6d73672056616c75657320746f206164642061726520656d7074790000000000600082015250565b6000611973601b83611814565b915061197e8261193d565b602082019050919050565b600060208201905081810360008301526119a281611966565b9050919050565b7f496e73756666696369656e742062616c616e63652e0000000000000000000000600082015250565b60006119df601583611814565b91506119ea826119a9565b602082019050919050565b60006020820190508181036000830152611a0e816119d2565b9050919050565b600081519050611a2481611535565b92915050565b600060208284031215611a4057611a3f61152b565b5b6000611a4e84828501611a15565b91505092915050565b6000604082019050611a6c60008301856114f7565b611a7960208301846114f7565b9392505050565b600081905092915050565b7f4572726f723a205468652073656e646572206973206e6f7420616c6c6f77656460008201527f20746f207370656e64207468697320616d6f756e742066726f6d200000000000602082015250565b6000611ae7603b83611a80565b9150611af282611a8b565b603b82019050919050565b60008160601b9050919050565b6000611b1582611afd565b9050919050565b6000611b2782611b0a565b9050919050565b611b3f611b3a826114e5565b611b1c565b82525050565b6000611b5082611ada565b9150611b5c8284611b2e565b60148201915081905092915050565b60006020820190508181036000830152611b85818461184f565b905092915050565b7f496e73756666696369656e742062616c616e63652054434f494e000000000000600082015250565b6000611bc3601a83611814565b9150611bce82611b8d565b602082019050919050565b60006020820190508181036000830152611bf281611bb6565b9050919050565b6000606082019050611c0e60008301866114f7565b611c1b60208301856114f7565b611c28604083018461149b565b949350505050565b60008115159050919050565b611c4581611c30565b8114611c5057600080fd5b50565b600081519050611c6281611c3c565b92915050565b600060208284031215611c7e57611c7d61152b565b5b6000611c8c84828501611c53565b91505092915050565b7f596f75206861766520746f20737065636966792074686520746f6b656e20626560008201527f666f726500000000000000000000000000000000000000000000000000000000602082015250565b6000611cf1602483611814565b9150611cfc82611c95565b604082019050919050565b60006020820190508181036000830152611d2081611ce4565b9050919050565b7f6574686572000000000000000000000000000000000000000000000000000000600082015250565b6000611d5d600583611a80565b9150611d6882611d27565b600582019050919050565b6000611d7e82611d50565b9150819050919050565b6000611d9382611809565b611d9d8185611a80565b9350611dad818560208601611825565b80840191505092915050565b6000611dc58284611d88565b915081905092915050565b7f4e487b7100000000000000000000000000000000000000000000000000000000600052601160045260246000fd5b6000611e0a82611491565b9150611e1583611491565b9250828202611e2381611491565b91508282048414831517611e3a57611e39611dd0565b5b5092915050565b7f4e487b7100000000000000000000000000000000000000000000000000000000600052601260045260246000fd5b6000611e7b82611491565b9150611e8683611491565b925082611e9657611e95611e41565b5b828204905092915050565b7f74636f696e000000000000000000000000000000000000000000000000000000600082015250565b6000611ed7600583611a80565b9150611ee282611ea1565b600582019050919050565b6000611ef882611eca565b9150819050919050565b7f556e737570706f7274656420746f6b656e207479706500000000000000000000600082015250565b6000611f38601683611814565b9150611f4382611f02565b602082019050919050565b60006020820190508181036000830152611f6781611f2b565b9050919050565b7f496e73756666696369656e742062616c616e6365000000000000000000000000600082015250565b6000611fa4601483611814565b9150611faf82611f6e565b602082019050919050565b60006020820190508181036000830152611fd381611f97565b9050919050565b6000604082019050611fef60008301856114f7565b611ffc602083018461149b565b9392505050565b7f696e737566696369656e742062616c616e6365206f6620555344430000000000600082015250565b6000612039601b83611814565b915061204482612003565b602082019050919050565b600060208201905081810360008301526120688161202c565b9050919050565b7f6661696c64207472616e73646665722055534443000000000000000000000000600082015250565b60006120a5601483611814565b91506120b08261206f565b602082019050919050565b600060208201905081810360008301526120d481612098565b9050919050565b600081905092915050565b50565b60006120f66000836120db565b9150612101826120e6565b600082019050919050565b6000612117826120e9565b9150819050919050565b7f4661696c656420746f2073656e64204574686572000000000000000000000000600082015250565b6000612157601483611814565b915061216282612121565b602082019050919050565b600060208201905081810360008301526121868161214a565b9050919050565b60006121a061219b846116a3565b611688565b9050828152602081018484840111156121bc576121bb611612565b5b6121c7848285611825565b509392505050565b600082601f8301126121e4576121e361160d565b5b81516121f484826020860161218d565b91505092915050565b6000602082840312156122135761221261152b565b5b600082015167ffffffffffffffff81111561223157612230611530565b5b61223d848285016121cf565b91505092915050565b7f496e73756666696369656e742062616c616e6365204554484552000000000000600082015250565b600061227c601a83611814565b915061228782612246565b602082019050919050565b600060208201905081810360008301526122ab8161226f565b9050919050565b60006122bd82611491565b91506122c883611491565b92508282019050808211156122e0576122df611dd0565b5b92915050565b7f696e76616c696420646563766973696f6e206279203000000000000000000000600082015250565b600061231c601683611814565b9150612327826122e6565b602082019050919050565b6000602082019050818103600083015261234b8161230f565b9050919050565b600061235d82611491565b915061236883611491565b92508282039050818111156123805761237f611dd0565b5b9291505056fea2646970667358221220ba5dc27f13f45a4916e55454e47bd61f31cd75435ddb5c74ccfadd90b10a2a2a64736f6c634300081b0033",
  "linkReferences": {},
  "deployedLinkReferences": {}
}